:100000000C9473000C940D070C94E6060C949B0062
:100010000C949B000C949B000C949B000C949B00F4
:100020000C949B000C949B000C949B000C949B00E4
:100030000C949B000C949B000C949B000C949B00D4
:100040000C949C060C949B000C945A070C94340757
:100050000C949B000C949B000C949B000C949B00B4
:100060000C949B000C949B004661696C6564207441
:100070006F20726561642066726F6D204448542061
:1000800073656E736F72210000000000240027006A
:100090002A0000000000250028002B0000000008B6
:1000A000000201000003040700000000000000003F
:1000B00000000000230026002900040404040404B6
:1000C0000404020202020202030303030303010207
:1000D00004081020408001020408102001020408D6
:1000E00010208C07800C11241FBECFEFD8E0DEBF9C
:1000F000CDBF22E0A2EDB1E001C01D92AE3CB2073F
:10010000E1F711E0A0E0B1E0EEE2F1E202C005901B
:100110000D92A23DB107D9F710E0C2E7D0E004C0CC
:100120002197FE010E94200EC137D107C9F70E9416
:1001300066080C948A100C940000CF92DF92EF9224
:10014000FF92CF93DF93C82F8091BD028C3009F4CA
:100150005EC038F48B30F1F060E070E080EC9FE737
:100160004FC085518230C0F7D091B9026D2F70E039
:10017000762F662766277F778091BA02682B90E0FA
:1001800080E00E94890C2DEC3CEC4CEC5DE30E947D
:10019000EA0C59C06091B90270E090E080E00E94E2
:1001A000890C6B017C01D091BA02D7FF0AC0AC0167
:1001B0009B0160E070E080E89FEB0E94260E6B01DF
:1001C0007C01DF706D2F70E090E080E00E948B0C6E
:1001D0002DEC3CEC4CEC5DE30E94EA0CA70196018F
:1001E0000E94270ECC2361F026E636E646EE5FE35A
:1001F0000E94EA0C20E030E040E052E40E94270E2A
:10020000DF91CF91FF90EF90DF90CF900895D09144
:10021000B9026D2F70E090E080E00E94890C6B01C4
:100220007C016091BA026F7070E090E080E00E9403
:100230008B0C2DEC3CEC4CEC5DE30E94EA0CA7012E
:1002400096010E94270ED7FFCDCF9058CBCFCF92EB
:10025000DF92EF92FF92CF93DF93B091BE02A0E0C6
:100260008111AB2F8091BF0290E0880F991FAC01E4
:1002700040555F4FC090C402D090C502E090C602C6
:10028000F090C70230E020E0FA01C591D491E881F6
:10029000B90190E080E0EB23EA130AC02F5F3F4FE3
:1002A0006C157D058E059F0578F36FEF7FEFCB0111
:1002B000DF91CF91FF90EF90DF90CF90089590E085
:1002C000FC01E456FF4F2491FC01E253FF4F3491AF
:1002D000FC01E654FF4FE491EE23C9F0222339F0EC
:1002E000233001F1A8F4213019F1223029F1F0E096
:1002F000EE0FFF1FEE56FF4FA591B4918FB7F89404
:10030000EC91611126C030953E233C938FBF089538
:100310002730A9F02830C9F0243049F780918000B7
:100320008F7D03C0809180008F7780938000DFCF26
:1003300084B58F7784BDDBCF84B58F7DFBCF809173
:10034000B0008F778093B000D2CF8091B0008F7DC6
:10035000F9CF3E2BDACFCF93DF9390E0FC01E2534D
:10036000FF4F249186549F4FFC0184918823D1F044
:1003700090E0880F991FFC01E857FF4FA591B491B9
:10038000FC01EE56FF4FC591D491623071F49FB7D6
:10039000F8943C91822F809583238C93E8812E2BB7
:1003A00028839FBFDF91CF9108958FB7F894EC9188
:1003B0002E2B2C938FBFF6CF3FB7F8948091ED0191
:1003C0009091EE01A091EF01B091F00126B5A89BAC
:1003D00005C02F3F19F00196A11DB11D3FBFBA2FD7
:1003E000A92F982F8827BC01CD01620F711D811D97
:1003F000911D42E0660F771F881F991F4A95D1F71C
:1004000008958F929F92AF92BF92CF92DF92EF9218
:10041000FF924B015C010E94DC016B017C010E9498
:10042000DC016C197D098E099F09683E73408105C6
:100430009105A8F321E0821A9108A108B10888EE7D
:10044000C80E83E0D81EE11CF11C81149104A104A4
:10045000B10429F7FF90EF90DF90CF90BF90AF905D
:100460009F908F9008952FB7F8946091E901709153
:10047000EA018091EB019091EC012FBF0895CF929A
:10048000DF92EF92FF920F931F93CF93DF93CDB73D
:10049000DEB7C054D1400FB6F894DEBF0FBECDBF5B
:1004A0000E9433020091C0021091C1022091C20249
:1004B0003091C3026B017C01C01AD10AE20AF30A2F
:1004C00097018601003D17402105310590F4809188
:1004D000C802C05CDE4F0FB6F894DEBF0FBECDBFC2
:1004E000DF91CF911F910F91FF90EF90DF90CF9010
:1004F00008956093C0027093C1028093C2029093EA
:10050000C3021092BB021092BA021092B90210926A
:10051000B8021092B70262E08091BC020E94AB0167
:1005200061E070E080E090E00E94010261E0809173
:10053000BC020E94AB0160E08091BC020E945F019E
:100540008091BD028551823020F58BE291E10197C7
:10055000F1F762E08091BC020E94AB018091C90278
:1005600090E08230910538F0880F991F880F991F0D
:1005700005970197F1F7F89480E00E9427016F3FFB
:100580007F4F8F4F9F4F61F41092C802789480E0A4
:10059000A0CF64E170E080E090E00E940102D9CF3A
:1005A00081E00E9427016F3F7F4F8F4F9F4F61F384
:1005B0008E010F5F1F4F6E012FEBC21A2EEFD20A72
:1005C000780180E00E942701F701608371838283B4
:1005D000938381E00E942701F701648375838683FA
:1005E0009783F8E0EF0EF11CEC14FD0451F77894BA
:1005F00030E020E0F801C080D180E280F3804481C7
:10060000558166817781FFEFCF16DF06EF06FF0683
:1006100031F04F3F8FEF58076807780719F41092B1
:10062000C802B5CFF90183E0F595E7958A95E1F722
:10063000E954FD4F8081880FC416D506E606F706FB
:1006400010F180832F5F3F4F085F1F4F2832310525
:1006500089F64091BB022091B7028091B802280F21
:100660003327331F8091B902280F311D8091BA02C0
:10067000820F932F911D99274817190681F681E063
:100680008093C80226CF8160DCCF08950895AF9291
:10069000BF92CF92DF92EF92FF920F931F93CF936F
:1006A000DF936C017B018B01040F151FEB015E01D1
:1006B000AE18BF08C017D10759F06991D601ED9166
:1006C000FC910190F081E02DC6010995892B79F705
:1006D000C501DF91CF911F910F91FF90EF90DF90B7
:1006E000CF90BF90AF900895FC01538D448D252F7E
:1006F00030E0842F90E0821B930B541710F0CF96BC
:10070000089501970895FC01918D828D981761F0ED
:10071000A28DAE0FBF2FB11D5D968C91928D9F5F04
:100720009F73928F90E008958FEF9FEF0895FC01E3
:10073000918D828D981731F0828DE80FF11D858D96
:1007400090E008958FEF9FEF0895FC01918D228D29
:10075000892F90E0805C9F4F821B91098F739927AE
:10076000089581EF91E00E94A50321E0892B09F40F
:1007700020E0822F089580E090E0892B29F00E94EC
:10078000B10381110C9400000895FC01A48DA80F01
:10079000B92FB11DA35ABF4F2C91848D90E00196C3
:1007A0008F739927848FA689B7892C93A089B189E3
:1007B0008C91837080648C93938D848D981306C084
:1007C0000288F389E02D80818F7D80830895EF92E8
:1007D000FF920F931F93CF93DF93EC0181E0888FFB
:1007E0009B8D8C8D98131AC0E889F989808185FFCB
:1007F00015C09FB7F894EE89FF896083E889F9896D
:1008000080818370806480839FBF81E090E0DF916E
:10081000CF911F910F91FF90EF900895F62E0B8DC1
:1008200010E00F5F1F4F0F731127E02E8C8D8E117C
:100830000CC00FB607FCFACFE889F989808185FFE3
:10084000F5CFCE010E94C503F1CFEB8DEC0FFD2F4C
:10085000F11DE35AFF4FF0829FB7F8940B8FEA899E
:10086000FB8980818062CFCFCF93DF93EC01888DAD
:100870008823B9F0AA89BB89E889F9898C9185FD1B
:1008800003C0808186FD0DC00FB607FCF7CF8C91A9
:1008900085FFF2CF808185FFEDCFCE010E94C50399
:1008A000E9CFDF91CF9108950F931F93CF93DF93FB
:1008B000EC01062F142F60E088890E945F019C855F
:1008C0008D859CBD8DBD0EBD00000DB407FEFDCF16
:1008D0008EB51EBD00000DB407FEFDCF1EB561E054
:1008E00088890E945F01812FDF91CF911F910F9125
:1008F000089580EC9AECA9E8B6E38093A502909362
:10090000A602A093A702B093A80244EE66E88FE87F
:1009100092E00E94540440EC67E88FE892E00E9465
:10092000540440E068E88FE892E00C94540440E0FE
:100930000C945404CF92DF92EF92FF92CF93DF9307
:100940006DE18FE892E00E94970490E034E0959585
:1009500087953A95E1F78A3091050CF042C0FC0189
:10096000EE0FFF1FE80FF91FE65FFE4FC080D1803A
:10097000E2800E2C000CFF086EE18FE892E00E94EE
:100980009704D82F66E28FE892E00E949704C82F60
:10099000D295DF7021E030E040E050E004C0220F4B
:1009A000331F441F551FDA95D2F7C701B6010E94C5
:1009B000010E68EE73E080E090E00E94010E2131AC
:1009C00031054105510594F04C2F486066EA8FE8E7
:1009D00092E0DF91CF91FF90EF90DF90CF900C9459
:1009E0005404CC24CA94DC2C7601C6CF4C2F477F0C
:1009F000EDCF1092AC021092AB026DE18FE892E065
:100A00000E949704482F4E7F6DE98FE892E00C9486
:100A1000540408950F931F93CF93DF93EC01E88163
:100A2000F9810084F185E02D0995892BB1F06DE005
:100A3000CE010E949704082F60E0CE010E94970427
:100A4000182F402F6DE8CE010E945404812F90E0B2
:100A5000DF91CF911F910F9108958FEF9FEFF8CF06
:100A6000CF93DF93EC01E881F9810084F185E02DDB
:100A70000995892B69F08A8D9B8D01969B8F8A8FB2
:100A800060E0CE010E94970490E0DF91CF9108953D
:100A90008FEF9FEFFACF0F931F930E943302609363
:100AA0009702709398028093990290939A028FE82C
:100AB00092E00E94300597FF1DC00E943302009112
:100AC0009702109198022091990230919A02601B2E
:100AD000710B820B930B0091930210919402209161
:100AE0009502309196026017710782079307F8F21A
:100AF0008FEF9FEF1F910F910895CF93DF93EC013C
:100B000063E10E94970490E02A8D3B8D821B930B3A
:100B1000DF91CF910895AF92BF92CF92DF92FF9273
:100B20000F931F93CF93DF936C015B01EA0162E2A5
:100B30000E949704F82E90E09C012C0F3D1F2F3F40
:100B4000310529F020F0CFEFD0E0C81BD90B85018B
:100B5000AC0EBD1E0A151B0541F0F80141918F0135
:100B600060E8C6010E945404F5CF4C2F4F0D62EA95
:100B7000C6010E945404CE01DF91CF911F910F91C5
:100B8000FF90DF90CF90BF90AF900895CF93DF9309
:100B90001F92CDB7DEB76983DC01ED91FC91028035
:100BA000F381E02D41E050E0BE016F5F7F4F09957A
:100BB0000F90DF91CF91089590E080E00895CF935A
:100BC000CFB7F8948091D201811127C0E4ECF0E016
:100BD0008491E8EDF0E09491E82FF0E0EE0FFF1F34
:100BE000E857FF4FA591B491EC91E92321F461E01E
:100BF0008AE00E945F0161E08AE00E94AB018CB54F
:100C000080618CBD8CB580648CBD61E08DE00E94FC
:100C1000AB0161E08BE00E94AB018091D2018F5F5C
:100C20008093D201CFBFCF910895FC0101900020A5
:100C3000E9F73197AF01481B590BBC0181EF91E0F7
:100C40000C9447038F929F92AF92BF920F931F9382
:100C5000CF93DF93CDB7DEB7A1970FB6F894DEBF81
:100C60000FBECDBF19A2423008F44AE08E010F5DDD
:100C70001F4F842E912CB12CA12CA50194010E9410
:100C8000DF0DE62FB901CA01EA30F4F4E05DD801C6
:100C9000EE938D01232B242B252B79F790E080E018
:100CA000109719F0CD010E941506A1960FB6F89481
:100CB000DEBF0FBECDBFDF91CF911F910F91BF90CF
:100CC000AF909F908F900895E95CE1CFCF93DF9331
:100CD0000E941506EC018CE491E00E9415068C0F31
:100CE0009D1FDF91CF9108950F931F93CF93DF93B3
:100CF000EC0188819981009759F02A813B81261760
:100D0000370730F081E0DF91CF911F910F91089567
:100D10008B016F5F7F4F0E94BD0F009759F0998341
:100D200088831B830A832C813D81232B59F7FC0187
:100D30001082E8CF80E0E7CF1F920F920FB60F929C
:100D400011242F933F938F939F93AF93BF938091E1
:100D5000E9019091EA01A091EB01B091EC01309191
:100D6000E80123E0230F2D3758F50196A11DB11D91
:100D70002093E8018093E9019093EA01A093EB01AD
:100D8000B093EC018091ED019091EE01A091EF0103
:100D9000B091F0010196A11DB11D8093ED019093DA
:100DA000EE01A093EF01B093F001BF91AF919F913D
:100DB0008F913F912F910F900FBE0F901F9018951C
:100DC00026E8230F0296A11DB11DD2CF1F920F92CC
:100DD0000FB60F9211242F933F934F935F936F930E
:100DE0007F938F939F93AF93BF93EF93FF93E09184
:100DF0000201F09103010995FF91EF91BF91AF912D
:100E00009F918F917F916F915F914F913F912F9122
:100E10000F900FBE0F901F9018951F920F920FB654
:100E20000F9211242F933F934F935F936F937F9370
:100E30008F939F93AF93BF93EF93FF93E091000144
:100E4000F09101010995FF91EF91BF91AF919F91B1
:100E50008F917F916F915F914F913F912F910F9063
:100E60000FBE0F901F9018951F920F920FB60F9202
:100E700011242F933F934F935F936F937F938F939F
:100E80009F93AF93BF93EF93FF9381EF91E00E9405
:100E9000C503FF91EF91BF91AF919F918F917F918A
:100EA0006F915F914F913F912F910F900FBE0F90D7
:100EB0001F9018951F920F920FB60F9211242F9327
:100EC0008F939F93EF93FF93E0910102F0910202C1
:100ED0008081E0910702F091080282FD1BC09081A1
:100EE00080910A028F5F8F7320910B02821741F06D
:100EF000E0910A02F0E0EF50FE4F958F80930A02D6
:100F0000FF91EF919F918F912F910F900FBE0F90B6
:100F10001F9018958081F4CF1092F4011092F30184
:100F200088EE93E0A0E0B0E08093F5019093F601A5
:100F3000A093F701B093F8018CE291E09093F20155
:100F40008093F10185EC90E09093FE018093FD0188
:100F500084EC90E0909300028093FF0180EC90E09D
:100F6000909302028093010281EC90E0909304023E
:100F70008093030282EC90E0909306028093050236
:100F800086EC90E0909308028093070210920A0288
:100F900010920B0210920C0210920D02109292020B
:100FA000109291028EE391E09093900280938F02D1
:100FB00080E580939B0281E080939C028EE892E022
:100FC00090939E0280939D028AE090E09093A0020D
:100FD00080939F0289E090E09093A2028093A10207
:100FE00082E090E09093A4028093A3021092A50265
:100FF0001092A6021092A7021092A8021092AA02C2
:101000001092A9021092AC021092AB021092AE02A2
:101010001092AD021092B0021092AF0210929302A1
:1010200010929402109295021092960285E080939D
:10103000BC0285E18093BD02E3EDF0E0E491E09332
:10104000BE02EFEBF0E0E491E093BF0280E89EE3A4
:10105000A0E0B0E08093C4029093C502A093C602C2
:10106000B093C7021092B2021092B1021092B40271
:101070001092B3021092B6021092B50270E060E0D6
:1010800081EB92E00E9474062091B1023091B2028D
:10109000811113C02115310519F0C9010E94340FC7
:1010A0001092B2021092B1021092B6021092B502E2
:1010B0001092B4021092B30208951092B6021092E8
:1010C000B5026EE471E0C9010C948310CF93DF93F5
:1010D000CDB7DEB728970FB6F894DEBF0FBECDBFF1
:1010E000789484B5826084BD84B5816084BD85B503
:1010F000826085BD85B5816085BD80916E0081600F
:1011000080936E00109281008091810082608093B4
:1011100081008091810081608093810080918000B6
:101120008160809380008091B10084608093B100E1
:101130008091B00081608093B00080917A008460DB
:1011400080937A0080917A00826080937A00809107
:101150007A00816080937A0080917A008068809321
:101160007A001092C10061E088E00E94AB0160E06B
:1011700088E00E945F0161E087E00E94AB0160E0CF
:1011800087E00E945F01E0910102F091020282E09B
:101190008083E091FD01F091FE011082E091FF015A
:1011A000F09100028FEC808310920902E091050219
:1011B000F091060286E08083E0910302F091040240
:1011C000808180618083E0910302F091040280813C
:1011D00088608083E0910302F0910402808180683E
:1011E0008083E0910302F091040280818F7D8083EF
:1011F0008FE491E00E94660662E08091BC020E944A
:10120000AB010E943302605D7740810991096093D0
:10121000C0027093C1028093C2029093C30287E31D
:101220008093C9020E94DF058EE892E090939E02AF
:1012300080939D028AE090E09093A00280939F02A9
:1012400089E090E09093A2028093A10282E090E076
:101250009093A4028093A30261E08AE00E94AB0114
:1012600061E080919F020E945F018091A1029091B4
:10127000A2028F3F9807C9F061E00E94AB0160E0D5
:101280008091A1020E945F016AE070E080E090E03E
:101290000E94010261E08091A1020E945F016AE068
:1012A00070E080E090E00E9401020E94DF0562E4AD
:1012B0008FE892E00E949704823129F080E691E065
:1012C0000E946606FFCF40E861E88FE892E00E9446
:1012D00054040E94790440E06EE88FE892E00E9496
:1012E000540440E06FE88FE892E00E9454046CE000
:1012F0008FE892E00E949704482F43606CE88FE8E3
:1013000092E00E94540444E066EA8FE892E00E9472
:10131000540444E86DEC8FE892E00E9454044BE2E0
:101320006BE88FE892E00E9454044FE869E88FE888
:1013300092E00E94540441E861E88FE892E00E9444
:10134000540486E791E00E94660647E86DEC8FE85A
:1013500092E00E94540441E36BE88FE892E00E941F
:1013600054044FE869E88FE892E00E9454040E9418
:10137000790443EC61EB8FE892E00E9454044AE068
:1013800067EB8FE892E00E9454046EE18FE892E0F0
:101390000E9497048F70482F40676EE98FE892E0B3
:1013A0000E9454040E949A046DE18FE892E00E942A
:1013B00097048F70482F40676DE98FE892E00E9494
:1013C00054040E949A046DE18FE892E00E94970411
:1013D000817F482F42606DE98FE892E00E945404BB
:1013E00040E060EA8FE892E00E94540448E061EA3D
:1013F0008FE892E00E94540442E169EB8FE892E0AA
:101400000E9454046EE18FE892E00E949704482FF6
:1014100044606EE98FE892E00E9454048FEF80935D
:10142000D3018093D4011092D5011092D60181E0AE
:101430008093D7018093D8018093D90114EE212E97
:1014400011E0312E00E010E00E943302C090E40170
:10145000D090E501E090E601F090E7016C197D097C
:101460008E099F09613177428105910508F443C1D6
:101470000E9433026093E4017093E5018093E601DA
:101480009093E7010E943F02882351F08091BD02B2
:101490008B3030F08D3058F08551823008F415C112
:1014A000C12CD12CB0ECEB2EBFE7FB2E1EC06091FF
:1014B000B80270E090E080E00E948B0C2DEC3CECD8
:1014C0004CEC5DE30E94EA0C6B017C016091B70279
:1014D00070E090E080E00E948B0C9B01AC01C701A2
:1014E000B6010E94270E6B017C010E943F02812CF5
:1014F000912CA0ECAA2EAFE7BA2E882329F080E029
:101500000E949D004B015C018092DA019092DB0108
:10151000A092DC01B092DD01C092DE01D092DF0129
:10152000E092E001F092E1010E943F02412C512C37
:10153000F0EC6F2EFFE77F2E882329F081E00E94D8
:101540009D002B013C01A7019601C701B6010E9435
:10155000930E811110C0A5019401C501B4010E9430
:10156000930E811108C0A3019201C301B2010E9430
:10157000930E8823A9F0E8E6EE2EE0E0FE2EF701B8
:101580006491662349F081EF91E00E94E703FFEF49
:10159000EF1AFF0A892B99F78CE491E00E94150657
:1015A000E7EDF1E073EDE72E71E0F72E90E080E0DB
:1015B0002191922730E020E0AC01880F991F57FF5E
:1015C00004C041E2842740E194272F5F3F4F283039
:1015D000310591F722EE31E02E173F0749F790933E
:1015E000E3018093E2018CE891E00E94150660918E
:1015F000E2017091E30190E080E040E10E94220668
:101600008CE491E00E94150661E088E00E945F0191
:1016100088E991E00E94660661E08FE892E00E940E
:1016200097048370833009F162E18FE892E00E94B1
:10163000970483FF06C048E062E98FE892E00E94C9
:10164000540441E861E88FE892E00E9454040E944B
:10165000F90440E06DE88FE892E00E94540440E015
:1016600062EA8FE892E00E94540441E150E063EDA9
:1016700071E08FE892E00E948B0543E861E88FE813
:1016800092E00E94540462E18FE892E00E94970485
:1016900083FFF9CF48E062E98FE892E00E945404AA
:1016A00060E088E00E945F018FEA91E00E941506E9
:1016B0002E143F04E1F0F70161917F0170E090E0AA
:1016C00080E040E10E942206F3CF6091B702709162
:1016D000B80276276727762790E080E00E94890C81
:1016E0002DEC3CEC4CEC5DE30E94EA0CFCCE8EE46D
:1016F00091E00E94660661E087E00E945F0162E17E
:101700008FE892E00E949704F82E0E94F9044F2D72
:1017100062E98FE892E00E945404F6FE38C0F5FCBE
:1017200036C01092AA021092A9028091AB02909149
:10173000AC0262E2892B09F463E18FE892E00E9437
:101740009704E82EF12C60E18FE892E00E94970464
:10175000482F6DE88FE892E00E94540441E861E868
:101760008FE892E00E945404E114F10421F560E056
:1017700087E00E945F010115110509F465CE0E9402
:10178000B103882309F45ECE0E9400005BCE61E0C5
:101790008FE892E00E949704863849F340E06DE8B4
:1017A0008FE892E00E94540446E861E88FE892E0F6
:1017B0000E945404DCCF88EB91E00E941506B7012B
:1017C000FF0C880B990B4AE00E9422068FEC91E0F7
:1017D0000E9415068FE892E00E947D05892B39F260
:1017E0001A8219821C821B821E821D8270E060E0B8
:1017F000CE0101960E94740629813A8181112CC084
:101800002115310519F0C9010E94340F1A8219827D
:101810001E821D821C821B820E944B0597FD24C0E4
:101820008F831886ED80FE80FFEFEF1AFF0AB70165
:10183000CE0101960E947406882371F329813A81B2
:101840008D819E81BE01695F7F4F820F931F0E9431
:101850008310FE82ED82E0CF1E821D826EE471E075
:10186000C9010E948310D8CF8091B1029091B20239
:10187000009779F169817A816115710541F1409193
:10188000B3025091B4022D813E8142175307F8F004
:101890000E9483108D819E819093B6028093B50241
:1018A0001E821D8289819A81009711F00E94340F57
:1018B0004091B5025091B6026091B1027091B202AE
:1018C00081EF91E00E9447038CE491E081CF0E9478
:1018D000340F89819A819093B2028093B1028B81F7
:1018E0009C819093B4028093B3028D819E819093EA
:1018F000B6028093B5021A8219821C821B82D0CF55
:101900008091B1029091B202009711F00C94340FC3
:101910000895E89409C097FB3EF4909580957095E2
:1019200061957F4F8F4F9F4F9923A9F0F92F96E92B
:10193000BB279395F695879577956795B795F111A0
:10194000F8CFFAF4BB0F11F460FF1BC06F5F7F4F3D
:101950008F4F9F4F16C0882311F096E911C077234F
:1019600021F09EE8872F762F05C0662371F096E858
:10197000862F70E060E02AF09A95660F771F881F27
:10198000DAF7880F9695879597F90895990F0008CB
:10199000550FAA0BE0E8FEEF16161706E807F90741
:1019A000C0F012161306E407F50798F0621B730BDC
:1019B000840B950B39F40A2661F0232B242B252B5D
:1019C00021F408950A2609F4A140A6958FEF811D00
:1019D000811D08950E94FD0C0C946E0D0E94600DF7
:1019E00038F00E94670D20F0952311F00C94570DEC
:1019F0000C945D0D11240C94A20D0E947F0D70F3C8
:101A0000959FC1F3950F50E0551F629FF001729FA3
:101A1000BB27F00DB11D639FAA27F00DB11DAA1FB2
:101A2000649F6627B00DA11D661F829F2227B00DFF
:101A3000A11D621F739FB00DA11D621F839FA00D8A
:101A4000611D221F749F3327A00D611D231F849FDA
:101A5000600D211D822F762F6A2F11249F57504031
:101A60009AF0F1F088234AF0EE0FFF1FBB1F661FAC
:101A7000771F881F91505040A9F79E3F510580F075
:101A80000C94570D0C94A20D5F3FE4F3983ED4F3F1
:101A9000869577956795B795F795E7959F5FC1F719
:101AA000FE2B880F911D9695879597F9089597F9C4
:101AB0009F6780E870E060E008959FEF80EC0895F4
:101AC00000240A941616170618060906089500241D
:101AD0000A9412161306140605060895092E039497
:101AE000000C11F4882352F0BB0F40F4BF2B11F40B
:101AF00060FF04C06F5F7F4F8F4F9F4F089557FD6A
:101B00009058440F551F59F05F3F71F04795880F6B
:101B100097FB991F61F09F3F79F087950895121602
:101B200013061406551FF2CF4695F1DF08C01616AE
:101B300017061806991FF1CF86957105610508945F
:101B40000895E894BB2766277727CB0197F9089576
:101B50002F923F924F925F926F927F928F929F92BD
:101B6000AF92BF92CF92DF92EF92FF920F931F93AB
:101B7000CF93DF93CDB7DEB7CA1BDB0B0FB6F8945C
:101B8000DEBF0FBECDBF09942A88398848885F849C
:101B90006E847D848C849B84AA84B984C884DF800D
:101BA000EE80FD800C811B81AA81B981CE0FD11DF1
:101BB0000FB6F894DEBF0FBECDBFED010895A1E2D0
:101BC0001A2EAA1BBB1BFD010DC0AA1FBB1FEE1FB7
:101BD000FF1FA217B307E407F50720F0A21BB30B02
:101BE000E40BF50B661F771F881F991F1A9469F77E
:101BF00060957095809590959B01AC01BD01CF01DA
:101C00000895052E97FB1EF400940E94180E57FDB0
:101C100007D00E94DF0D07FC03D04EF40C94180E81
:101C200050954095309521953F4F4F4F5F4F089508
:101C300090958095709561957F4F8F4F9F4F089538
:101C4000EE0FFF1F0590F491E02D09945058BB272B
:101C5000AA270E943E0E0C946E0D0E94600D38F073
:101C60000E94670D20F039F49F3F19F426F40C947C
:101C70005D0D0EF4E095E7FB0C94570DE92F0E94E3
:101C80007F0D58F3BA17620773078407950720F092
:101C900079F4A6F50C94A10D0EF4E0950B2EBA2F55
:101CA000A02D0B01B90190010C01CA01A001112462
:101CB000FF27591B99F0593F50F4503E68F11A160E
:101CC000F040A22F232F342F4427585FF3CF46959F
:101CD00037952795A795F0405395C9F77EF41F16C1
:101CE000BA0B620B730B840BBAF09150A1F0FF0F8B
:101CF000BB1F661F771F881FC2F70EC0BA0F621F77
:101D0000731F841F48F4879577956795B795F79566
:101D10009E3F08F0B0CF9395880F08F09927EE0FFB
:101D20009795879508950E94C60C880B990B089586
:101D30000F931F93CF93DF938230910510F482E0CD
:101D400090E0E091CC02F091CD0230E020E0B0E0F4
:101D5000A0E0309799F42115310509F44AC0281BF9
:101D6000390B24303105D8F58A819B8161157105C5
:101D700089F1FB0193838283FE0111C0408151816F
:101D80000281138148175907E0F04817590799F461
:101D9000109761F012960C93129713961C9332963B
:101DA000CF01DF91CF911F910F9108950093CC0245
:101DB0001093CD02F4CF2115310551F0421753078E
:101DC00038F0A901DB019A01BD01DF01F801C1CFA3
:101DD000EF01F9CF9093CD028093CC02CDCFFE01DD
:101DE000E20FF31F819391932250310939832883A5
:101DF000D7CF2091CA023091CB02232B41F42091FE
:101E00000601309107013093CB022093CA02209142
:101E10000401309105012115310541F42DB73EB77C
:101E20004091080150910901241B350BE091CA0231
:101E3000F091CB02E217F307A0F42E1B3F0B2817FB
:101E4000390778F0AC014E5F5F4F2417350748F033
:101E50004E0F5F1F5093CB024093CA028193919320
:101E60009FCFF0E0E0E09CCFCF93DF930097E9F0C5
:101E7000FC01329713821282A091CC02B091CD0264
:101E8000ED0130E020E01097A1F420813181820F34
:101E9000931F2091CA023091CB022817390709F00D
:101EA00061C0F093CB02E093CA02DF91CF91089515
:101EB000EA01CE17DF07E8F54A815B819E014115F3
:101EC0005105B1F7E901FB83EA8349915991C40FA8
:101ED000D51FEC17FD0761F4808191810296840F74
:101EE000951FE90199838883828193819B838A83EB
:101EF000F0E0E0E012968D919C9113970097B9F570
:101F00002D913C911197CD010296820F931F209144
:101F1000CA023091CB022817390739F6309751F5AC
:101F20001092CD021092CC02B093CB02A093CA02C1
:101F3000BCCFD383C28340815181840F951FC817C2
:101F4000D90761F44E5F5F4F88819981480F591F0F
:101F5000518340838A819B8193838283211531053C
:101F600009F0B0CFF093CD02E093CC029ECFFD01FB
:101F7000DC01C0CF13821282D7CFB0E0A0E0E3EC47
:101F8000FFE00C94AA0D8C01009751F4CB010E9444
:101F9000980E8C01C801CDB7DEB7E0E10C94C60DF8
:101FA000FC01E60FF71F9C0122503109E217F307ED
:101FB00008F49DC0D901CD91DC911197C617D707C0
:101FC00098F0C530D10530F3CE01049786179707F6
:101FD00008F3C61BD70B2297C193D1936D937C93C3
:101FE000CF010E94340FD6CF5B01AC1ABD0A4C0161
:101FF0008C0E9D1EA091CC02B091CD02512C412C93
:10200000F12CE12C109731F58091CA029091CB020E
:102010008815990509F05CC04616570608F058C0A7
:102020008091040190910501009741F48DB79EB70E
:102030004091080150910901841B950BE817F9079D
:1020400008F055C0F093CB02E093CA02F901718306
:102050006083A0CF8D919C91119712966C901297EE
:1020600013967C901397A815B90559F56C0142E0B9
:10207000C40ED11CCA14DB0420F1AC014A195B095F
:10208000DA011296159780F0628273825183408341
:10209000D9016D937C93E114F10471F0D70113968B
:1020A000FC93EE93129776CF22968C0F9D1FF90129
:1020B00091838083F301EFCFF093CD02E093CC02C4
:1020C00069CF4816590608F42C017D01D3019ACF37
:1020D000CB010E94980E7C01009749F0AE01B80137
:1020E0000E947A10C8010E94340F870153CF10E07C
:1020F00000E050CFFB01DC0102C001900D92415085
:102100005040D8F70895FB01DC0101900D920020AA
:10211000E1F7089510E0C2E7D0E004C0FE010E949C
:0E212000200E2196C337D107C9F7F894FFCFE0
:10212E00460346030000CE028000781E00A0280061
:10213E00F03C00405100127A00E4A20024F4004862
:10214E00E80190D00320A10700000000E703470339
:10215E0074033404A5038303970300000000C6052F
:10216E008B05DC0509057D0530050A050D0A004CB9
:10217E006F52612053656E646572205465737400EE
:10218E005374617274696E67204C6F526120666180
:10219E00696C656421004C6F526120496E697469E7
:1021AE00616C697A696E67204F4B21004352432060
:1021BE00656E76696F3A200053656E64696E6720AE
:1021CE00746F20726639355F73657276657200536F
:1021DE00656E64696E672000526563656976656435
:1021EE00207061636B6574206F662073697A653A3F
:0221FE002000BF
:00000001FF
