:100000000C94F0000C94A0090C9479090C9418013C
:100010000C9418010C9418010C9418010C941801FC
:100020000C9418010C9418010C9418010C941801EC
:100030000C9418010C9418010C9418010C941801DC
:100040000C942F090C9418010C94ED090C94C70919
:100050000C9418010C9418010C9418010C941801BC
:100060000C9418010C94180100407A10F35A00A067
:10007000724E18090010A5D4E80000E87648170071
:1000800000E40B54020000CA9A3B000000E1F505B1
:10009000000080969800000040420F000000A086FB
:1000A00001000000102700000000E803000000002D
:1000B0006400000000000A000000000001000000D1
:1000C00000002C76D888DC674F0823DFC1DFAE59EB
:1000D000E1B1B796E5E3E453C63AE651997696E87E
:1000E000E6C28426EB898C9B62ED407C6FFCEFBC02
:1000F0009C9F40F2BAA56FA5F490055A2AF75C932D
:100100006B6CF9676DC11BFCE0E40D47FEF520E662
:10011000B500D0ED902E0300943577050080841E45
:10012000080000204E0A000000C80C333333330FA0
:10013000986E12831141EF8D2114893BE65516CF3D
:10014000FEE6DB18D1844B381BF77C1D901DA4BB49
:10015000E424203284725E228100C9F124ECA1E5FE
:100160003D274661696C656420746F207265616427
:100170002066726F6D204448542073656E736F72F1
:10018000210000000000240027002A0000000000D9
:10019000250028002B0000000008000201000003D9
:1001A0000407000000000000000000000000230021
:1001B00026002900040404040404040402020202C8
:1001C000020203030303030301020408102040801A
:1001D0000102040810200102040810201F0AF20E78
:1001E00011241FBECFEFD8E0DEBFCDBF22E0A6ECCA
:1001F000B1E001C01D92AF3BB207E1F711E0A0E012
:10020000B1E0E6E8FBE202C005900D92A63CB10722
:10021000D9F710E0CFEED0E004C02197FE010E9494
:10022000EC12CE3ED107C9F70E94F90A0C94B6151C
:100230000C940000CF92DF92EF92FF92CF93DF9366
:10024000C82F8091AE028C3009F45EC038F48B3038
:10025000F1F060E070E080EC9FE74FC085518230A4
:10026000C0F7D091AA026D2F70E0762F662766271F
:100270007F778091AB02682B90E080E00E9455115F
:100280002DEC3CEC4CEC5DE30E94B61159C0609142
:10029000AA0270E090E080E00E9455116B017C01A1
:1002A000D091AB02D7FF0AC0AC019B0160E070E0C7
:1002B00080E89FEB0E94F2126B017C01DF706D2FD2
:1002C00070E090E080E00E9457112DEC3CEC4CEC8B
:1002D0005DE30E94B611A70196010E94F312CC23A0
:1002E00061F026E636E646EE5FE30E94B61120E0B6
:1002F00030E040E052E40E94F312DF91CF91FF9092
:10030000EF90DF90CF900895D091AA026D2F70E00A
:1003100090E080E00E9455116B017C016091AB027E
:100320006F7070E090E080E00E9457112DEC3CEC83
:100330004CEC5DE30E94B611A70196010E94F312F6
:10034000D7FFCDCF9058CBCFCF92DF92EF92FF92D5
:10035000CF93DF93B091AF02A0E08111AB2F8091DA
:10036000B00290E0880F991FAC0146555E4FC090D7
:10037000B502D090B602E090B702F090B80230E03B
:1003800020E0FA01C591D491E881B90190E080E0C4
:10039000EB23EA130AC02F5F3F4F6C157D058E05D6
:1003A0009F0578F36FEF7FEFCB01DF91CF91FF9047
:1003B000EF90DF90CF90089590E0FC01EA56FE4F59
:1003C0002491FC01E853FE4F3491FC01EC54FE4FA4
:1003D000E491EE23C9F0222339F0233001F1A8F48F
:1003E000213019F1223029F1F0E0EE0FFF1FE45720
:1003F000FE4FA591B4918FB7F894EC91611126C08E
:1004000030953E233C938FBF08952730A9F02830C4
:10041000C9F0243049F7809180008F7D03C080911E
:1004200080008F7780938000DFCF84B58F7784BD85
:10043000DBCF84B58F7DFBCF8091B0008F77809329
:10044000B000D2CF8091B0008F7DF9CF3E2BDACFB4
:10045000CF93DF9390E0FC01E853FE4F24918C543E
:100460009E4FFC0184918823D1F090E0880F991F62
:10047000FC01EE57FE4FA591B491FC01E457FE4FED
:10048000C591D491623071F49FB7F8943C91822F5A
:10049000809583238C93E8812E2B28839FBFDF9147
:1004A000CF9108958FB7F894EC912E2B2C938FBF9A
:1004B000F6CF3FB7F8948091DE019091DF01A091D3
:1004C000E001B091E10126B5A89B05C02F3F19F0CE
:1004D0000196A11DB11D3FBFBA2FA92F982F8827C4
:1004E000BC01CD01620F711D811D911D42E0660F9F
:1004F000771F881F991F4A95D1F708958F929F9271
:10050000AF92BF92CF92DF92EF92FF924B015C01CC
:100510000E9459026B017C010E9459026C197D09ED
:100520008E099F09683E734081059105A8F321E07B
:10053000821A9108A108B10888EEC80E83E0D81E7F
:10054000E11CF11C81149104A104B10429F7FF906E
:10055000EF90DF90CF90BF90AF909F908F900895D5
:100560002FB7F8946091DA017091DB018091DC0182
:100570009091DD012FBF0895CF92DF92EF92FF920D
:100580000F931F93CF93DF93CDB7DEB7C054D14005
:100590000FB6F894DEBF0FBECDBF0E94B00200912F
:1005A000B1021091B2022091B3023091B4026B01FA
:1005B0007C01C01AD10AE20AF30A97018601003DC4
:1005C00017402105310590F48091B902C05CDE4FDF
:1005D0000FB6F894DEBF0FBECDBFDF91CF911F9154
:1005E0000F91FF90EF90DF90CF9008956093B1024C
:1005F0007093B2028093B3029093B4021092AC0253
:100600001092AB021092AA021092A9021092A802B4
:1006100062E08091AD020E94280261E070E080E01B
:1006200090E00E947E0261E08091AD020E9428026B
:1006300060E08091AD020E94DC018091AE028551A4
:10064000823020F58BE291E10197F1F762E0809131
:10065000AD020E9428028091BA0290E0823091059A
:1006600038F0880F991F880F991F05970197F1F7A8
:10067000F89480E00E94A4016F3F7F4F8F4F9F4FFF
:1006800061F41092B902789480E0A0CF64E170E048
:1006900080E090E00E947E02D9CF81E00E94A40118
:1006A0006F3F7F4F8F4F9F4F61F38E010F5F1F4F43
:1006B0006E012FEBC21A2EEFD20A780180E00E9461
:1006C000A401F701608371838283938381E00E9498
:1006D000A401F7016483758386839783F8E0EF0EA6
:1006E000F11CEC14FD0451F7789430E020E0F8019F
:1006F000C080D180E280F38044815581668177811A
:10070000FFEFCF16DF06EF06FF0631F04F3F8FEF0A
:1007100058076807780719F41092B902B5CFF901A4
:1007200083E0F595E7958A95E1F7E855FD4F8081DF
:10073000880FC416D506E606F70610F180832F5FF2
:100740003F4F085F1F4F2832310589F64091AC02B8
:100750002091A8028091A902280F3327331F80918E
:10076000AA02280F311D8091AB02820F932F911D99
:1007700099274817190681F681E08093B90226CFA0
:100780008160DCCF08950895AF92BF92CF92DF923F
:10079000EF92FF920F931F93CF93DF936C017B0136
:1007A0008B01040F151FEB015E01AE18BF08C017C7
:1007B000D10759F06991D601ED91FC910190F0813A
:1007C000E02DC6010995892B79F7C501DF91CF91FD
:1007D0001F910F91FF90EF90DF90CF90BF90AF905F
:1007E0000895FC01538D448D252F30E0842F90E037
:1007F000821B930B541710F0CF960895019708951C
:10080000FC01918D828D981761F0A28DAE0FBF2FE4
:10081000B11D5D968C91928D9F5F9F73928F90E03A
:1008200008958FEF9FEF0895FC01918D828D9817A9
:1008300031F0828DE80FF11D858D90E008958FEFE6
:100840009FEF0895FC01918D228D892F90E0805CAF
:100850009F4F821B91098F739927089582EE91E033
:100860000E94220421E0892B09F420E0822F0895C0
:1008700080E090E0892B29F00E942E0481110C94D5
:1008800000000895FC01A48DA80FB92FB11DA35A33
:10089000BF4F2C91848D90E001968F739927848FA0
:1008A000A689B7892C93A089B1898C9183708064C3
:1008B0008C93938D848D981306C00288F389E02D64
:1008C00080818F7D80830895EF92FF920F931F9315
:1008D000CF93DF93EC0181E0888F9B8D8C8D9813F3
:1008E0001AC0E889F989808185FF15C09FB7F894FF
:1008F000EE89FF896083E889F9898081837080644B
:1009000080839FBF81E090E0DF91CF911F910F9195
:10091000FF90EF900895F62E0B8D10E00F5F1F4FA4
:100920000F731127E02E8C8D8E110CC00FB607FCB3
:10093000FACFE889F989808185FFF5CFCE010E9441
:100940004204F1CFEB8DEC0FFD2FF11DE35AFF4F69
:10095000F0829FB7F8940B8FEA89FB8980818062CF
:10096000CFCFCF93DF93EC01888D8823B9F0AA898C
:10097000BB89E889F9898C9185FD03C0808186FD5A
:100980000DC00FB607FCF7CF8C9185FFF2CF8081A9
:1009900085FFEDCFCE010E944204E9CFDF91CF91D8
:1009A00008950F931F93CF93DF93EC01062F142F1D
:1009B00060E088890E94DC019C858D859CBD8DBD91
:1009C0000EBD00000DB407FEFDCF8EB51EBD0000AC
:1009D0000DB407FEFDCF1EB561E088890E94DC01E1
:1009E000812FDF91CF911F910F91089580EC9AECA8
:1009F000A9E8B6E38093960290939702A093980299
:100A0000B093990244EE66E880E892E00E94D10437
:100A100040EC67E880E892E00E94D10440E068E89A
:100A200080E892E00C94D10440E00C94D104CF9281
:100A3000DF92EF92FF92CF93DF936DE180E892E037
:100A40000E94140590E034E0959587953A95E1F77A
:100A50008A3091050CF042C0FC01EE0FFF1FE80F39
:100A6000F91FE65FFE4FC080D180E2800E2C000CA3
:100A7000FF086EE180E892E00E941405D82F66E23C
:100A800080E892E00E941405C82FD295DF7021E023
:100A900030E040E050E004C0220F331F441F551FD8
:100AA000DA95D2F7C701B6010E94CD1268EE73E065
:100AB00080E090E00E94CD122131310541055105C1
:100AC00094F04C2F486066EA80E892E0DF91CF9185
:100AD000FF90EF90DF90CF900C94D104CC24CA9477
:100AE000DC2C7601C6CF4C2F477FEDCF10929D02B4
:100AF00010929C026DE180E892E00E941405482F5C
:100B00004E7F6DE980E892E00C94D10408950F9334
:100B10001F93CF93DF93EC01E881F9810084F18585
:100B2000E02D0995892BB1F06DE0CE010E941405EE
:100B3000082F60E0CE010E941405182F402F6DE8A9
:100B4000CE010E94D104812F90E0DF91CF911F91BF
:100B50000F9108958FEF9FEFF8CFCF93DF93EC01C4
:100B6000E881F9810084F185E02D0995892B69F0F0
:100B70008A8D9B8D01969B8F8A8F60E0CE010E94AB
:100B8000140590E0DF91CF9108958FEF9FEFFACF9A
:100B90000F931F930E94B0026093880270938902A2
:100BA00080938A0290938B0280E892E00E94AD05C8
:100BB00097FF1DC00E94B002009188021091890227
:100BC00020918A0230918B02601B710B820B930B78
:100BD0000091840210918502209186023091870253
:100BE0006017710782079307F8F28FEF9FEF1F914D
:100BF0000F910895CF93DF93EC0163E10E941405F8
:100C000090E02A8D3B8D821B930BDF91CF9108954D
:100C1000AF92BF92CF92DF92FF920F931F93CF9329
:100C2000DF936C015B01EA0162E20E941405F82E79
:100C300090E09C012C0F3D1F2F3F310529F020F043
:100C4000CFEFD0E0C81BD90B8501AC0EBD1E0A1535
:100C50001B0541F0F80141918F0160E8C6010E9437
:100C6000D104F5CF4C2F4F0D62EAC6010E94D1048A
:100C7000CE01DF91CF911F910F91FF90DF90CF9028
:100C8000BF90AF900895CF93DF931F92CDB7DEB79B
:100C90006983DC01ED91FC910280F381E02D41E05C
:100CA00050E0BE016F5F7F4F09950F90DF91CF91AC
:100CB000089590E080E00895CF93CFB7F8948091A5
:100CC000C601811127C0EEEBF1E08491E2EDF1E085
:100CD0009491E82FF0E0EE0FFF1FEE57FE4FA59125
:100CE000B491EC91E92321F461E08AE00E94DC01F7
:100CF00061E08AE00E9428028CB580618CBD8CB5D1
:100D000080648CBD61E08DE00E94280261E08BE090
:100D10000E9428028091C6018F5F8093C601CFBFD9
:100D2000CF910895FC0101900020E9F73197AF01C0
:100D3000481B590BBC0182EE91E00C94C4038F92C6
:100D40009F92AF92BF920F931F93CF93DF93CDB734
:100D5000DEB7A1970FB6F894DEBF0FBECDBF19A2C4
:100D6000423008F44AE08E010F5D1F4F842E912C13
:100D7000B12CA12CA50194010E94AB12E62FB90160
:100D8000CA01EA30F4F4E05DD801EE938D01232B23
:100D9000242B252B79F790E080E0109719F0CD01F6
:100DA0000E949206A1960FB6F894DEBF0FBECDBF8B
:100DB000DF91CF911F910F91BF90AF909F908F9037
:100DC0000895E95CE1CFCF93DF930E949206EC0196
:100DD0008CE491E00E9492068C0F9D1FDF91CF91D1
:100DE00008954F925F926F927F928F929F92AF92EF
:100DF000BF92CF92DF92EF92FF920F93CF93DF9348
:100E0000CDB7DEB728970FB6F894DEBF0FBECDBFC3
:100E10006B017C0149015A0101110EC026E636E63C
:100E200046EE5FE30E94B61120E030E040E052E47D
:100E30000E94F3126B017C0120E030E048E852E4AC
:100E4000C701B6010E94F2122AE939E949E95FE3D4
:100E50000E94B6112B013C0120E030E044E752E44F
:100E6000C701B6010E94F3129B01AC01C301B2019C
:100E70000E94F3122B013C0122E133E840EC5DE3D8
:100E8000C501B4010E94B6119B01AC01C301B201BE
:100E90000E94F31220E030E040E05FE30E94B611D0
:100EA0002B013C0120E030E04EE952E40E945F1348
:100EB00018160CF023C1A7019601C701B6010E94C4
:100EC000B6112B013C01A5019401C501B4010E949A
:100ED000B6116D837E838F83988721E133E243E0EF
:100EE00050E4C701B6010E94B61129E134E849E295
:100EF00052E40E94F21269837A838B839C8326E1F9
:100F00003BE442E251E4C501B4010E94B6119B01E9
:100F1000AC0169817A818B819C810E94F312698383
:100F20007A838B839C8328E436E246E65EEBC70136
:100F3000B6010E94B611A50194010E94B6119B0151
:100F4000AC0169817A818B819C810E94F312698353
:100F50007A838B839C8320EE3FE040EE5BEBC30102
:100F6000B2010E94B6119B01AC0169817A818B812B
:100F70009C810E94F31269837A838B839C8328EF80
:100F800037E840E65DEB6D817E818F8198850E9418
:100F9000B6119B01AC0169817A818B819C810E9491
:100FA000F31269837A838B839C832CEA3DE041EAC8
:100FB0005AE3C301B2010E94B611A50194010E9437
:100FC000B6119B01AC0169817A818B819C810E9461
:100FD000F31269837A838B839C8328EC3FE84FE587
:100FE0005AE3C701B6010E94B6112D813E814F819F
:100FF00058850E94B6119B01AC0169817A818B8171
:101000009C810E94F31269837A838B839C8321EFF6
:101010003BE845E056EBC301B2010E94B6112D81B9
:101020003E814F8158850E94B6119B01AC016981B8
:101030007A818B819C810E94F3122B013C0120E07C
:1010400030E040E551E4C501B4010E94501187FF32
:1010500088C020E030E040EA52E4C701B6010E94B7
:101060005F1387FD7EC020E030E040EE52E4C70110
:10107000B6010E94501118160CF4BDC0A5019401D0
:1010800060E070E080E591E40E94F21220E030E040
:1010900040E85EE30E94B6114B015C0120E030E0C5
:1010A0004EEB52E4C701B6010E94F2126B017C01C3
:1010B00020E030E0A9010E945F1318160CF048C030
:1010C000A701960160E070E088E891E40E94F212C6
:1010D0002EE33DEE40E75DE30E94B6110E946A13E5
:1010E0009B01AC01C501B4010E94B6119B01AC018A
:1010F000C301B2010E94F2122B013C01011110C088
:1011000020E030E040E052E4C301B2010E94F2125C
:1011100026E838E34EE05FE30E94B6112B013C0164
:10112000C301B20128960FB6F894DEBF0FBECDBF43
:10113000DF91CF910F91FF90EF90DF90CF90BF9014
:10114000AF909F908F907F906F905F904F90089599
:1011500020E030E048E851E4C701B6010E94F312F4
:10116000B7CF20E030E04AEA52E4C501B4010E9462
:101170005F1318161CF620E030E040EA52E4C70185
:10118000B6010E945F1387FDB9CF20E030E04EEA40
:1011900052E4C701B6010E94501118160CF4AECFEC
:1011A00020E030E04AEA52E4C501B4010E94F212A4
:1011B0002DEC3CEC4CEC5DE30E94B6114B015C0164
:1011C000A701960160E070E08EEA92E40E94F212BC
:1011D0002DEC3CEC4CE45EE30E94B6119B01AC01AB
:1011E000C501B4010E94B6119B01AC01C301B2015B
:1011F0000E94F31281CF20E030E04AEA52E4C501B8
:10120000B4010E945F1318160CF4BFCF77CF0F9371
:101210001F93CF93DF93EC0188819981009759F058
:101220002A813B812617370730F081E0DF91CF918B
:101230001F910F9108958B016F5F7F4F0E94E914FA
:10124000009759F0998388831B830A832C813D8101
:10125000232B59F7FC011082E8CF80E0E7CF1F92E3
:101260000F920FB60F9211242F933F938F939F935A
:10127000AF93BF938091DA019091DB01A091DC01E3
:10128000B091DD013091D90123E0230F2D3758F5BE
:101290000196A11DB11D2093D9018093DA0190938D
:1012A000DB01A093DC01B093DD018091DE01909120
:1012B000DF01A091E001B091E1010196A11DB11DF6
:1012C0008093DE019093DF01A093E001B093E101F0
:1012D000BF91AF919F918F913F912F910F900FBE32
:1012E0000F901F90189526E8230F0296A11DB11D9F
:1012F000D2CF1F920F920FB60F9211242F933F93CC
:101300004F935F936F937F938F939F93AF93BF930D
:10131000EF93FF93E0910201F09103010995FF9192
:10132000EF91BF91AF919F918F917F916F915F915D
:101330004F913F912F910F900FBE0F901F901895D6
:101340001F920F920FB60F9211242F933F934F933A
:101350005F936F937F938F939F93AF93BF93EF931D
:10136000FF93E0910001F09101010995FF91EF9148
:10137000BF91AF919F918F917F916F915F914F91AD
:101380003F912F910F900FBE0F901F9018951F92B5
:101390000F920FB60F9211242F933F934F935F93A9
:1013A0006F937F938F939F93AF93BF93EF93FF932D
:1013B00082EE91E00E944204FF91EF91BF91AF91C4
:1013C0009F918F917F916F915F914F913F912F915D
:1013D0000F900FBE0F901F9018951F920F920FB68F
:1013E0000F9211242F938F939F93EF93FF93E0918C
:1013F000F201F091F3018081E091F801F091F9019F
:1014000082FD1BC090818091FB018F5F8F732091C3
:10141000FC01821741F0E091FB01F0E0EE51FE4F3C
:10142000958F8093FB01FF91EF919F918F912F9169
:101430000F900FBE0F901F9018958081F4CF1092DF
:10144000E5011092E40188EE93E0A0E0B0E0809323
:10145000E6019093E701A093E801B093E9018CE2E3
:1014600091E09093E3018093E20185EC90E090930A
:10147000EF018093EE0184EC90E09093F101809372
:10148000F00180EC90E09093F3018093F20181EC05
:1014900090E09093F5018093F40182EC90E09093BA
:1014A000F7018093F60186EC90E09093F901809328
:1014B000F8011092FB011092FC011092FD011092B4
:1014C000FE0110928302109282028EE391E09093CB
:1014D00081028093800280E580938C0281E080937A
:1014E0008D028FE792E090938F0280938E028AE0C4
:1014F00090E0909391028093900289E090E0909325
:1015000093028093920282E090E090939502809300
:1015100094021092960210929702109298021092E2
:10152000990210929B0210929A0210929D021092C0
:101530009C0210929F0210929E021092A1021092A1
:10154000A0021092840210928502109286021092DC
:10155000870285E08093AD0285E18093AE02EDECD9
:10156000F1E0E491E093AF02E9EBF1E0E491E09384
:10157000B00280E89EE3A0E0B0E08093B5029093D3
:10158000B602A093B702B093B8021092A3021092D1
:10159000A2021092A5021092A4021092A702109229
:1015A000A60270E060E082EA92E00E9407092091C2
:1015B000A2023091A302811113C02115310519F047
:1015C000C9010E9460141092A3021092A20210920C
:1015D000A7021092A6021092A5021092A4020895EA
:1015E0001092A7021092A6026EE471E0C9010C9459
:1015F000AF15CF93DF93CDB7DEB72C970FB6F89426
:10160000DEBF0FBECDBF789484B5826084BD84B543
:10161000816084BD85B5826085BD85B5816085BDED
:1016200080916E00816080936E00109281008091A5
:10163000810082608093810080918100816080932D
:101640008100809180008160809380008091B10052
:1016500084608093B1008091B00081608093B0007D
:1016600080917A00846080937A0080917A00826011
:1016700080937A0080917A00816080937A008091D3
:101680007A00806880937A001092C10061E088E05F
:101690000E94280260E088E00E94DC0161E087E0AF
:1016A0000E94280260E087E00E94DC01E091F201E4
:1016B000F091F30182E08083E091EE01F091EF017F
:1016C0001082E091F001F091F1018FEC8083109293
:1016D000FA01E091F601F091F70186E08083E09154
:1016E000F401F091F501808180618083E091F40143
:1016F000F091F501808188608083E091F401F091A0
:10170000F501808180688083E091F401F091F5011A
:1017100080818F7D80838FE491E00E94E30662E008
:101720008091AD020E9428020E94B002605D774065
:10173000810991096093B1027093B2028093B30260
:101740009093B40287E38093BA020E945C068FE70D
:1017500092E090938F0280938E028AE090E09093C3
:1017600091028093900289E090E09093930280939D
:10177000920282E090E0909395028093940261E05F
:101780008AE00E94280261E0809190020E94DC01C0
:1017900080919202909193028F3F9807C9F061E087
:1017A0000E94280260E0809192020E94DC016AE0BF
:1017B00070E080E090E00E947E0261E08091920201
:1017C0000E94DC016AE070E080E090E00E947E020E
:1017D0000E945C0662E480E892E00E941405823177
:1017E00029F080E691E00E94E306FFCF40E861E83F
:1017F00080E892E00E94D1040E94F60440E06EE886
:1018000080E892E00E94D10440E06FE880E892E036
:101810000E94D1046CE080E892E00E941405482FF9
:1018200043606CE880E892E00E94D10444E066EAFC
:1018300080E892E00E94D10444E86DEC80E892E0F8
:101840000E94D1044BE26BE880E892E00E94D10450
:101850004FE869E880E892E00E94D10441E861E83D
:1018600080E892E00E94D10486E791E00E94E306BE
:1018700047E86DEC80E892E00E94D10441E36BE818
:1018800080E892E00E94D1044FE869E880E892E0A5
:101890000E94D1040E94F60443EC61EB80E892E0E0
:1018A0000E94D1044AE067EB80E892E00E94D104F4
:1018B0006EE180E892E00E9414058F70482F406727
:1018C0006EE980E892E00E94D1040E9417056DE164
:1018D00080E892E00E9414058F70482F40676DE900
:1018E00080E892E00E94D1040E9417056DE180E833
:1018F00092E00E941405817F482F42606DE980E8E4
:1019000092E00E94D10440E060EA80E892E00E9408
:10191000D10448E061EA80E892E00E94D10442E10B
:1019200069EB80E892E00E94D1046EE180E892E0E9
:101930000E941405482F44606EE980E892E00E94FE
:10194000D1048FEF8093C7018093C8011092C90121
:101950001092CA0130E0232E30E0332E0E94B002F4
:101960000091D5011091D6012091D7013091D80175
:10197000601B710B820B930B61367A4E81059105CA
:1019800008F412C161E088E00E94DC018CE891E07B
:101990000E94E30661E080E892E00E9414058370F3
:1019A000833009F162E180E892E00E94140583FF30
:1019B00006C048E062E980E892E00E94D10441E874
:1019C00061E880E892E00E94D1040E94760540E040
:1019D0006DE880E892E00E94D10440E062EA80E88D
:1019E00092E00E94D1044EE050E067EC71E080E8A4
:1019F00092E00E94080643E861E880E892E00E94D5
:101A0000D10462E180E892E00E94140583FFF9CFDF
:101A100048E062E980E892E00E94D10460E088E05A
:101A20000E94DC018091D3019091D40101969093A2
:101A3000D4018093D30183EA91E00E94920607ECDF
:101A400011E0F1E0053D1F0751F0F80161918F01B0
:101A500070E090E080E040E10E949F06F2CF8EE4CB
:101A600091E00E94E3060E94B0026093D50170935A
:101A7000D6018093D7019093D8010E94BC0288239D
:101A800051F08091AE028B3030F08D3058F085519E
:101A9000823008F4D5C0812C912C20ECA22E2FE7A7
:101AA000B22E1EC06091A90270E090E080E00E941A
:101AB00057112DEC3CEC4CEC5DE30E94B6114B0150
:101AC0005C016091A80270E090E080E00E945711F4
:101AD0009B01AC01C501B4010E94F3124B015C01F2
:101AE0000E94BC02412C512C90EC692E9FE7792E6C
:101AF000882329F080E00E941A012B013C014092CA
:101B0000CB015092CC016092CD017092CE018092B7
:101B1000CF019092D001A092D101B092D2018E015A
:101B2000095F1F4F21E043E0C301B2010E94FB0E99
:101B30000650110921E043E0C501B4010E94FB0EEB
:101B40000E94BC02882309F48DC081E00E941A0122
:101B50006B017C01A5019401C501B4010E94AA1387
:101B6000811110C0A3019201C301B2010E94AA1306
:101B7000811108C0A7019601C701B6010E94AA13EE
:101B8000882391F002E611E0F8016491662341F0A8
:101B900082EE91E00E9464040F5F1F4F892BA1F732
:101BA0008CE491E00E94920661E087E00E94DC01F3
:101BB00062E180E892E00E941405182F0E947605E9
:101BC000412F62E980E892E00E94D10416FF51C0E3
:101BD00015FD4FC010929B0210929A0280919C02B8
:101BE00090919D0262E2892B09F463E180E892E022
:101BF0000E941405082F10E060E180E892E00E9446
:101C00001405482F6DE880E892E00E94D10441E875
:101C100061E880E892E00E94D10401151105E9F520
:101C200060E087E00E94DC012114310409F496CEC3
:101C30000E942E04882309F491CE0E9400008ECECB
:101C40006091A8027091A90276276727762790E015
:101C500080E00E9455112DEC3CEC4CEC5DE30E94C1
:101C6000B6113CCFC12CD12C80ECE82E8FE7F82E9A
:101C700071CF61E080E892E00E941405863881F21D
:101C800040E06DE880E892E00E94D10446E861E817
:101C900080E892E00E94D104C3CF8CEA91E00E94D8
:101CA0009206B801110F880B990B4AE00E949F061B
:101CB00083EC91E00E94920680E892E00E94FA058F
:101CC000892B09F4ADCF1A8219821C821B821E82D5
:101CD0001D8270E060E0CE0101960E940709298113
:101CE0003A8181112BC02115310519F0C9010E94DB
:101CF00060141A8219821E821D821C821B820E941D
:101D0000C80597FD23C08F8318860D811E810F5F44
:101D10001F4FB801CE0101960E940709882379F36D
:101D200029813A818D819E81BE01695F7F4F820F3B
:101D3000931F0E94AF151E830D83E1CF1E821D826B
:101D40006EE471E0C9010E94AF15D9CF8091A20263
:101D50009091A302009779F169817A8161157105EB
:101D600041F14091A4025091A5022D813E8142177C
:101D70005307F8F00E94AF158D819E819093A702C2
:101D80008093A6021E821D8289819A81009711F09C
:101D90000E9460144091A6025091A7026091A20295
:101DA0007091A30282EE91E00E94C4038CE491E062
:101DB00081CF0E94601489819A819093A3028093BD
:101DC000A2028B819C819093A5028093A4028D81B5
:101DD0009E819093A7028093A6021A8219821C8288
:101DE0001B82D0CF8091A2029091A302009711F0A4
:101DF0000C9460140895EF920F931F93CF93DF9389
:101E0000E80134E047FD34E1042E000C550B57FF88
:101E100003C0519541955109E32E022F242FAE01A5
:101E20000E94190FCE01DF91CF911F910F91EF907A
:101E30000895A9E0B0E0EFE1FFE00C947A126A01A6
:101E4000F22EB02E102FFBE3AF2EA01608F41BE3EA
:101E50001F5F012F27E0AE014F5F5F4F0E94781098
:101E6000BC018981982F9970913009F43FC09BE2A1
:101E7000E1FC04C09E2D9170E0FC3AC05E2D5071D3
:101E8000E82FE87083FF46C084E0911101C083E031
:101E9000EF2DE81B8F1508F0E0E0D6018E2F20E231
:101EA000552351F1992329F0D6019C93C60101963F
:101EB0006C0196012D5F3F4FE2FE24C08EE4D601F7
:101EC0008C9391E411969C93119712968C93D9015F
:101ED0008E2F90E281111BC0E20FF32FF11D1082B3
:101EE0008EEF9FEF2996ECE00C9496129DE2C6CF00
:101EF00090E2C4CF2D9381508111FCCFCE0ED11C26
:101F0000E0E0D0CF8EE6D6018C9391E6DBCF9D93B7
:101F10008150E0CF482F447082FF3DC084E0911192
:101F200001C083E08F1510F4EF2DE81BD6018E2F32
:101F300020E2552309F1992329F0D6019C93C6018B
:101F400001966C0196012D5F3F4FE2FE1BC089E4B4
:101F5000D6018C938EE411968C93119786E4129699
:101F60008C93D9018E2F90E2882309F4B5CF9D93ED
:101F70008150FACF2D9381508111FCCFCE0ED11C10
:101F8000E0E0D9CF89E6D6018C938EE611968C934A
:101F9000119786E6E4CF9B0177FF02C030E020E096
:101FA000A1E0B0E0911102C0B0E0A0E0F9013196EB
:101FB000AE0FBF1F8B2C912CBB2009F461C05401C4
:101FC000EFEFAE1ABE0AAA0DBB1DFA161B0619F0DA
:101FD00014F04F2D4A1B511188C0E3FC59C0760103
:101FE000A42FB0E2A1114FC0C40ED11C992309F453
:101FF0005BC040E0D6011196F60190836D01552338
:1020000009F448C0012F060F9A81582F507184FFA0
:1020100003C0913309F4015010160CF047C0093089
:1020200008F008E0EEE2FE2E5B01A01AB10885017F
:102030009194819491082F3F320729F4D601FC92A4
:10204000F60131966F016217730794F102171307B7
:102050007CF5DB01A21BB30BAA24A394B12CAC0E1C
:10206000BD1EAA0DBB1D11968C9121503109D601C0
:10207000119628153905F4F0F60180836D01DBCF48
:10208000B12CA12CA0CFF701B1937F01A150AACF11
:102090009111B0CFD601942F50E302C05D939150BF
:1020A0009111FCCFC40ED11C40E0ACCF01E0BACFFF
:1020B00080E3DBCF6217730731F4963388F49533EE
:1020C00011F4552369F0F6018083FD01842F90E21D
:1020D000811108C0A40FB11D1C9290E080E002CFD6
:1020E00081E3F1CF91938150F3CF911183CF8ACFC8
:1020F000283008F027E03327DA01990F311D87FDDA
:10210000916000966105710539F432602E5F3D9350
:1021100030E32A95E1F708959F3F30F0803871054C
:10212000610509F03C5F3C5F3D93913008F08068A9
:10213000911DDF93CF931F930F93FF92EF92192F6F
:10214000987F9695E92F96959695E90FFF27EE5380
:10215000FF4F99273327EE24FF24A701E7010590BD
:102160000894079428F4360FE71EF81E491F511DE6
:10217000660F771F881F991F0694A1F70590079493
:1021800028F4E70EF81E491F561FC11D770F881F40
:10219000991F661F0694A1F70590079428F4F80E7E
:1021A000491F561FC71FD11D880F991F661F771F14
:1021B0000694A1F70590079420F4490F561FC71FF6
:1021C000D81F990F661F771F881F0694A9F784915F
:1021D0001095177041F0D695C79557954795F79488
:1021E000E7941A95C1F7E8E6F0E068941590159128
:1021F00035916591959105907FE27395E118F10A0B
:10220000430B560BC90BD009C0F7E10CF11E431F5D
:10221000561FC91FD01D7EF4703311F48A95E6CF86
:10222000E894015030F0080F0AF40027021708F470
:10223000202F2395022F7A3328F079E37D932A9576
:10224000E9F710C07D932A9589F6069497956795CE
:10225000379517951794E118F10A430B560BC90BE4
:10226000D00998F023957E9173957A3308F070E346
:102270007C932013B8F77E9170617D9330F0839545
:1022800071E37D9370E32A95E1F71124EF90FF90BD
:102290000F911F91CF91DF91992787FD9095089518
:1022A0000E94921108F481E00895E89409C097FB18
:1022B0003EF490958095709561957F4F8F4F9F4F1D
:1022C0009923A9F0F92F96E9BB279395F695879561
:1022D00077956795B795F111F8CFFAF4BB0F11F424
:1022E00060FF1BC06F5F7F4F8F4F9F4F16C08823CB
:1022F00011F096E911C0772321F09EE8872F762F01
:1023000005C0662371F096E8862F70E060E02AF041
:102310009A95660F771F881FDAF7880F969587952D
:1023200097F90895990F0008550FAA0BE0E8FEEF02
:1023300016161706E807F907C0F012161306E40789
:10234000F50798F0621B730B840B950B39F40A2682
:1023500061F0232B242B252B21F408950A2609F460
:10236000A140A6958FEF811D811D08950E94C9117E
:102370000C943A120E942C1238F00E94331220F072
:10238000952311F00C9423120C94291211240C940F
:102390006E120E944B1270F3959FC1F3950F50E09F
:1023A000551F629FF001729FBB27F00DB11D639F07
:1023B000AA27F00DB11DAA1F649F6627B00DA11DAD
:1023C000661F829F2227B00DA11D621F739FB00D53
:1023D000A11D621F839FA00D611D221F749F3327C3
:1023E000A00D611D231F849F600D211D822F762F5C
:1023F0006A2F11249F5750409AF0F1F088234AF039
:10240000EE0FFF1FBB1F661F771F881F91505040A4
:10241000A9F79E3F510580F00C9423120C946E1284
:102420005F3FE4F3983ED4F3869577956795B7952B
:10243000F795E7959F5FC1F7FE2B880F911D969545
:10244000879597F9089597F99F6780E870E060E0B5
:1024500008959FEF80EC089500240A94161617063D
:1024600018060906089500240A9412161306140685
:1024700005060895092E0394000C11F4882352F0E8
:10248000BB0F40F4BF2B11F460FF04C06F5F7F4FA0
:102490008F4F9F4F089557FD9058440F551F59F087
:1024A0005F3F71F04795880F97FB991F61F09F3F41
:1024B00079F087950895121613061406551FF2CF6A
:1024C0004695F1DF08C0161617061806991FF1CFBA
:1024D00086957105610508940895E894BB276627E1
:1024E0007727CB0197F908952F923F924F925F92F1
:1024F0006F927F928F929F92AF92BF92CF92DF9214
:10250000EF92FF920F931F93CF93DF93CDB7DEB778
:10251000CA1BDB0B0FB6F894DEBF0FBECDBF09940C
:102520002A88398848885F846E847D848C849B8463
:10253000AA84B984C884DF80EE80FD800C811B8171
:10254000AA81B981CE0FD11D0FB6F894DEBF0FBEA0
:10255000CDBFED010895A1E21A2EAA1BBB1BFD0100
:102560000DC0AA1FBB1FEE1FFF1FA217B307E40772
:10257000F50720F0A21BB30BE40BF50B661F771FCA
:10258000881F991F1A9469F76095709580959095AA
:102590009B01AC01BD01CF010895052E97FB1EF4F0
:1025A00000940E94E41257FD07D00E94AB1207FC72
:1025B00003D04EF40C94E41250954095309521953B
:1025C0003F4F4F4F5F4F089590958095709561955F
:1025D0007F4F8F4F9F4F0895EE0FFF1F0590F4918F
:1025E000E02D09945058BB27AA270E940A130C9487
:1025F0003A120E942C1238F00E94331220F039F463
:102600009F3F19F426F40C9429120EF4E095E7FB91
:102610000C942312E92F0E944B1258F3BA17620749
:1026200073078407950720F079F4A6F50C946D12D2
:102630000EF4E0950B2EBA2FA02D0B01B9019001DD
:102640000C01CA01A0011124FF27591B99F0593F21
:1026500050F4503E68F11A16F040A22F232F342F69
:102660004427585FF3CF469537952795A795F040B7
:102670005395C9F77EF41F16BA0B620B730B840BCC
:10268000BAF09150A1F0FF0FBB1F661F771F881F84
:10269000C2F70EC0BA0F621F731F841F48F48795DC
:1026A00077956795B795F7959E3F08F0B0CF9395CE
:1026B000880F08F09927EE0F9795879508950E9447
:1026C000921108F48FEF089519F416F40C9429125E
:1026D0000C94AF130E945312B8F39923C9F3B6F3C5
:1026E0009F57550B87FF0E94BD130024A0E640EAC8
:1026F000900180585695979528F4805C660F771F57
:10270000881F20F026173707480730F4621B730B29
:10271000840B202931294A2BA6951794079420254C
:1027200031254A2758F7660F771F881F20F0261794
:102730003707480730F4620B730B840B200D311DF3
:10274000411DA09581F7B901842F9158880F969566
:10275000879508950E949211880B990B08959F3FC9
:1027600031F0915020F4879577956795B795880F4C
:10277000911D9695879597F9089591505040660F51
:10278000771F881FD2F708950F931F93CF93DF937E
:102790008230910510F482E090E0E091BD02F0916A
:1027A000BE0230E020E0B0E0A0E0309799F42115BF
:1027B000310509F44AC0281B390B24303105D8F5FE
:1027C0008A819B816115710589F1FB019383828365
:1027D000FE0111C0408151810281138148175907C0
:1027E000E0F04817590799F4109761F012960C938E
:1027F000129713961C933296CF01DF91CF911F91C0
:102800000F9108950093BD021093BE02F4CF2115DD
:10281000310551F04217530738F0A901DB019A0145
:10282000BD01DF01F801C1CFEF01F9CF9093BE02E6
:102830008093BD02CDCFFE01E20FF31F81939193F0
:102840002250310939832883D7CF2091BB023091A0
:10285000BC02232B41F420910601309107013093F3
:10286000BC022093BB022091040130910501211587
:10287000310541F42DB73EB740910801509109014F
:10288000241B350BE091BB02F091BC02E217F30769
:10289000A0F42E1B3F0B2817390778F0AC014E5FD0
:1028A0005F4F2417350748F04E0F5F1F5093BC024F
:1028B0004093BB02819391939FCFF0E0E0E09CCFE7
:1028C000CF93DF930097E9F0FC01329713821282D5
:1028D000A091BD02B091BE02ED0130E020E0109762
:1028E000A1F420813181820F931F2091BB0230918E
:1028F000BC022817390709F061C0F093BC02E093CD
:10290000BB02DF91CF910895EA01CE17DF07E8F50A
:102910004A815B819E0141155105B1F7E901FB83B5
:10292000EA8349915991C40FD51FEC17FD0761F453
:10293000808191810296840F951FE9019983888394
:10294000828193819B838A83F0E0E0E012968D91EF
:102950009C9113970097B9F52D913C911197CD015A
:102960000296820F931F2091BB023091BC02281760
:10297000390739F6309751F51092BE021092BD0218
:10298000B093BC02A093BB02BCCFD383C28340816F
:102990005181840F951FC817D90761F44E5F5F4FAF
:1029A00088819981480F591F518340838A819B8177
:1029B000938382832115310509F0B0CFF093BE02D5
:1029C000E093BD029ECFFD01DC01C0CF13821282D5
:1029D000D7CFB0E0A0E0EFEEF4E10C9476128C01DA
:1029E000009751F4CB010E94C4138C01C801CDB7EC
:1029F000DEB7E0E10C949212FC01E60FF71F9C0198
:102A000022503109E217F30708F49DC0D901CD9196
:102A1000DC911197C617D70798F0C530D10530F370
:102A2000CE0104978617970708F3C61BD70B22978A
:102A3000C193D1936D937C93CF010E946014D6CF44
:102A40005B01AC1ABD0A4C018C0E9D1EA091BD020B
:102A5000B091BE02512C412CF12CE12C109731F594
:102A60008091BB029091BC028815990509F05CC069
:102A70004616570608F058C0809104019091050150
:102A8000009741F48DB79EB740910801509109011C
:102A9000841B950BE817F90708F055C0F093BC02AA
:102AA000E093BB02F90171836083A0CF8D919C916B
:102AB000119712966C90129713967C901397A81505
:102AC000B90559F56C0142E0C40ED11CCA14DB04EF
:102AD00020F1AC014A195B09DA011296159780F0D2
:102AE0006282738251834083D9016D937C93E11498
:102AF000F10471F0D7011396FC93EE93129776CF01
:102B000022968C0F9D1FF90191838083F301EFCFF3
:102B1000F093BE02E093BD0269CF4816590608F44F
:102B20002C017D01D3019ACFCB010E94C4137C01FB
:102B3000009749F0AE01B8010E94A615C8010E9495
:102B40006014870153CF10E000E050CFFB01DC019F
:102B500002C001900D9241505040D8F70895FB01FA
:102B6000DC0101900D920020E1F7089510E0CFEE16
:102B7000D0E004C0FE010E94EC122196C03FD107B4
:062B8000C9F7F894FFCF35
:102B8600C303C3030000BF028000781E00A0280014
:102B9600F03C00405100127A00E4A20024F4004800
:102BA600E80190D00320A107000000006404C403DC
:102BB600F103B104220400041404000000004306DB
:102BC600080659068605FA05AD0587050D0A004C67
:102BD6006F52612053656E6465722054657374008C
:102BE6005374617274696E67204C6F52612066611E
:102BF600696C656421004C6F526120496E69746985
:102C0600616C697A696E67204F4B210053656E646B
:102C1600696E6720746F20726639355F73657276E8
:102C260065720053656E64696E6720005265636560
:102C360069766564207061636B6574206F662073C6
:062C4600697A653A2000E6
:00000001FF
